{
  "contractName": "Sale",
  "abi": [
    {
      "inputs": [
        {
          "internalType": "address",
          "name": "_admin",
          "type": "address"
        },
        {
          "internalType": "address",
          "name": "_seller",
          "type": "address"
        },
        {
          "internalType": "uint256",
          "name": "_tokenId",
          "type": "uint256"
        },
        {
          "internalType": "uint256",
          "name": "_minPrice",
          "type": "uint256"
        },
        {
          "internalType": "uint256",
          "name": "_purchasePrice",
          "type": "uint256"
        },
        {
          "internalType": "uint256",
          "name": "startTime",
          "type": "uint256"
        },
        {
          "internalType": "uint256",
          "name": "endTime",
          "type": "uint256"
        },
        {
          "internalType": "address",
          "name": "_currencyAddress",
          "type": "address"
        },
        {
          "internalType": "address",
          "name": "_nftAddress",
          "type": "address"
        }
      ],
      "stateMutability": "nonpayable",
      "type": "constructor"
    },
    {
      "anonymous": false,
      "inputs": [
        {
          "indexed": false,
          "internalType": "address",
          "name": "bidder",
          "type": "address"
        },
        {
          "indexed": false,
          "internalType": "uint256",
          "name": "amount",
          "type": "uint256"
        }
      ],
      "name": "HighestBidIncereased",
      "type": "event"
    },
    {
      "anonymous": false,
      "inputs": [
        {
          "indexed": false,
          "internalType": "address",
          "name": "winner",
          "type": "address"
        },
        {
          "indexed": false,
          "internalType": "uint256",
          "name": "amount",
          "type": "uint256"
        }
      ],
      "name": "SaleEnded",
      "type": "event"
    },
    {
      "inputs": [],
      "name": "buyer",
      "outputs": [
        {
          "internalType": "address",
          "name": "",
          "type": "address"
        }
      ],
      "stateMutability": "view",
      "type": "function"
    },
    {
      "inputs": [],
      "name": "currencyAddress",
      "outputs": [
        {
          "internalType": "address",
          "name": "",
          "type": "address"
        }
      ],
      "stateMutability": "view",
      "type": "function"
    },
    {
      "inputs": [],
      "name": "ended",
      "outputs": [
        {
          "internalType": "bool",
          "name": "",
          "type": "bool"
        }
      ],
      "stateMutability": "view",
      "type": "function"
    },
    {
      "inputs": [],
      "name": "erc20Contract",
      "outputs": [
        {
          "internalType": "contract IERC20",
          "name": "",
          "type": "address"
        }
      ],
      "stateMutability": "view",
      "type": "function"
    },
    {
      "inputs": [],
      "name": "erc721Contract",
      "outputs": [
        {
          "internalType": "contract IERC721",
          "name": "",
          "type": "address"
        }
      ],
      "stateMutability": "view",
      "type": "function"
    },
    {
      "inputs": [],
      "name": "highestBid",
      "outputs": [
        {
          "internalType": "uint256",
          "name": "",
          "type": "uint256"
        }
      ],
      "stateMutability": "view",
      "type": "function"
    },
    {
      "inputs": [],
      "name": "highestBidder",
      "outputs": [
        {
          "internalType": "address",
          "name": "",
          "type": "address"
        }
      ],
      "stateMutability": "view",
      "type": "function"
    },
    {
      "inputs": [],
      "name": "minPrice",
      "outputs": [
        {
          "internalType": "uint256",
          "name": "",
          "type": "uint256"
        }
      ],
      "stateMutability": "view",
      "type": "function"
    },
    {
      "inputs": [],
      "name": "nftAddress",
      "outputs": [
        {
          "internalType": "address",
          "name": "",
          "type": "address"
        }
      ],
      "stateMutability": "view",
      "type": "function"
    },
    {
      "inputs": [],
      "name": "purchasePrice",
      "outputs": [
        {
          "internalType": "uint256",
          "name": "",
          "type": "uint256"
        }
      ],
      "stateMutability": "view",
      "type": "function"
    },
    {
      "inputs": [],
      "name": "saleEndTime",
      "outputs": [
        {
          "internalType": "uint256",
          "name": "",
          "type": "uint256"
        }
      ],
      "stateMutability": "view",
      "type": "function"
    },
    {
      "inputs": [],
      "name": "saleStartTime",
      "outputs": [
        {
          "internalType": "uint256",
          "name": "",
          "type": "uint256"
        }
      ],
      "stateMutability": "view",
      "type": "function"
    },
    {
      "inputs": [],
      "name": "seller",
      "outputs": [
        {
          "internalType": "address",
          "name": "",
          "type": "address"
        }
      ],
      "stateMutability": "view",
      "type": "function"
    },
    {
      "inputs": [],
      "name": "tokenId",
      "outputs": [
        {
          "internalType": "uint256",
          "name": "",
          "type": "uint256"
        }
      ],
      "stateMutability": "view",
      "type": "function"
    },
    {
      "inputs": [
        {
          "internalType": "uint256",
          "name": "bid_amount",
          "type": "uint256"
        }
      ],
      "name": "bid",
      "outputs": [],
      "stateMutability": "nonpayable",
      "type": "function"
    },
    {
      "inputs": [],
      "name": "purchase",
      "outputs": [],
      "stateMutability": "nonpayable",
      "type": "function"
    },
    {
      "inputs": [],
      "name": "confirmItem",
      "outputs": [],
      "stateMutability": "nonpayable",
      "type": "function"
    },
    {
      "inputs": [],
      "name": "cancelSales",
      "outputs": [],
      "stateMutability": "nonpayable",
      "type": "function"
    },
    {
      "inputs": [],
      "name": "getTimeLeft",
      "outputs": [
        {
          "internalType": "int256",
          "name": "",
          "type": "int256"
        }
      ],
      "stateMutability": "view",
      "type": "function"
    },
    {
      "inputs": [],
      "name": "getSaleInfo",
      "outputs": [
        {
          "internalType": "uint256",
          "name": "",
          "type": "uint256"
        },
        {
          "internalType": "uint256",
          "name": "",
          "type": "uint256"
        },
        {
          "internalType": "uint256",
          "name": "",
          "type": "uint256"
        },
        {
          "internalType": "uint256",
          "name": "",
          "type": "uint256"
        },
        {
          "internalType": "uint256",
          "name": "",
          "type": "uint256"
        },
        {
          "internalType": "address",
          "name": "",
          "type": "address"
        },
        {
          "internalType": "uint256",
          "name": "",
          "type": "uint256"
        },
        {
          "internalType": "address",
          "name": "",
          "type": "address"
        },
        {
          "internalType": "address",
          "name": "",
          "type": "address"
        },
        {
          "internalType": "address",
          "name": "",
          "type": "address"
        }
      ],
      "stateMutability": "view",
      "type": "function"
    },
    {
      "inputs": [],
      "name": "getContractAddress",
      "outputs": [
        {
          "internalType": "address",
          "name": "",
          "type": "address"
        }
      ],
      "stateMutability": "view",
      "type": "function"
    },
    {
      "inputs": [],
      "name": "getHighestBid",
      "outputs": [
        {
          "internalType": "uint256",
          "name": "",
          "type": "uint256"
        }
      ],
      "stateMutability": "view",
      "type": "function"
    },
    {
      "inputs": [],
      "name": "getCurrencyAmount",
      "outputs": [
        {
          "internalType": "uint256",
          "name": "",
          "type": "uint256"
        }
      ],
      "stateMutability": "view",
      "type": "function"
    }
  ],
  "bytecode": "0x60806040523480156200001157600080fd5b50604051620020d2380380620020d28339818101604052810190620000379190620002bc565b600086116200004557600080fd5b866007819055508560058190555084600681905550876000806101000a81548173ffffffffffffffffffffffffffffffffffffffff021916908373ffffffffffffffffffffffffffffffffffffffff16021790555088600260006101000a81548173ffffffffffffffffffffffffffffffffffffffff021916908373ffffffffffffffffffffffffffffffffffffffff160217905550836003819055508260048190555081600860006101000a81548173ffffffffffffffffffffffffffffffffffffffff021916908373ffffffffffffffffffffffffffffffffffffffff16021790555080600960006101000a81548173ffffffffffffffffffffffffffffffffffffffff021916908373ffffffffffffffffffffffffffffffffffffffff1602179055506000600960146101000a81548160ff02191690831515021790555081600c60006101000a81548173ffffffffffffffffffffffffffffffffffffffff021916908373ffffffffffffffffffffffffffffffffffffffff16021790555080600d60006101000a81548173ffffffffffffffffffffffffffffffffffffffff021916908373ffffffffffffffffffffffffffffffffffffffff1602179055505050505050505050506200039b565b600080fd5b600073ffffffffffffffffffffffffffffffffffffffff82169050919050565b600062000249826200021c565b9050919050565b6200025b816200023c565b81146200026757600080fd5b50565b6000815190506200027b8162000250565b92915050565b6000819050919050565b620002968162000281565b8114620002a257600080fd5b50565b600081519050620002b6816200028b565b92915050565b60008060008060008060008060006101208a8c031215620002e257620002e162000217565b5b6000620002f28c828d016200026a565b9950506020620003058c828d016200026a565b9850506040620003188c828d01620002a5565b97505060606200032b8c828d01620002a5565b96505060806200033e8c828d01620002a5565b95505060a0620003518c828d01620002a5565b94505060c0620003648c828d01620002a5565b93505060e0620003778c828d016200026a565b9250506101006200038b8c828d016200026a565b9150509295985092959850929598565b611d2780620003ab6000396000f3fe608060405234801561001057600080fd5b506004361061014d5760003560e01c806364edfbf0116100c3578063d57bde791161007c578063d57bde7914610312578063d7c97fb414610330578063db83694c1461034e578063defd6c5f14610375578063e45be8eb14610393578063ed338ff1146103b15761014d565b806364edfbf0146102865780637150d8ae14610290578063903e329c146102ae57806391f90157146102b8578063a8f6c913146102d6578063c7e284b8146102f45761014d565b80631cbaee2d116101155780631cbaee2d146101d457806332a2c5d0146101f25780633f31545c14610210578063454a2ab31461022e5780634979440a1461024a5780635bf8633a146102685761014d565b806308551a53146101525780630a7f463f1461017057806312fa6feb1461017a57806317d70f7c146101985780631c1cb323146101b6575b600080fd5b61015a6103cf565b60405161016791906114b5565b60405180910390f35b6101786103f3565b005b610182610626565b60405161018f91906114eb565b60405180910390f35b6101a0610639565b6040516101ad919061151f565b60405180910390f35b6101be61063f565b6040516101cb91906114b5565b60405180910390f35b6101dc610665565b6040516101e9919061151f565b60405180910390f35b6101fa61066b565b60405161020791906114b5565b60405180910390f35b610218610673565b604051610225919061151f565b60405180910390f35b6102486004803603810190610243919061156b565b610682565b005b610252610a78565b60405161025f919061151f565b60405180910390f35b610270610a82565b60405161027d91906114b5565b60405180910390f35b61028e610aa8565b005b610298610e82565b6040516102a591906114b5565b60405180910390f35b6102b6610ea8565b005b6102c061124a565b6040516102cd91906114b5565b60405180910390f35b6102de611270565b6040516102eb91906115f7565b60405180910390f35b6102fc611296565b604051610309919061162b565b60405180910390f35b61031a6112ab565b604051610327919061151f565b60405180910390f35b6103386112b1565b6040516103459190611667565b60405180910390f35b6103566112d7565b60405161036c9a99989796959493929190611682565b60405180910390f35b61037d6113a2565b60405161038a919061151f565b60405180910390f35b61039b6113a8565b6040516103a8919061151f565b60405180910390f35b6103b96113ae565b6040516103c6919061151f565b60405180910390f35b60008054906101000a900473ffffffffffffffffffffffffffffffffffffffff1681565b600a60009054906101000a900473ffffffffffffffffffffffffffffffffffffffff1673ffffffffffffffffffffffffffffffffffffffff163373ffffffffffffffffffffffffffffffffffffffff1614610483576040517f08c379a000000000000000000000000000000000000000000000000000000000815260040161047a906117a1565b60405180910390fd5b600c60009054906101000a900473ffffffffffffffffffffffffffffffffffffffff1673ffffffffffffffffffffffffffffffffffffffff166323b872dd3060008054906101000a900473ffffffffffffffffffffffffffffffffffffffff16600b546040518463ffffffff1660e01b8152600401610504939291906117c1565b6020604051808303816000875af1158015610523573d6000803e3d6000fd5b505050506040513d601f19601f820116820180604052508101906105479190611824565b50600d60009054906101000a900473ffffffffffffffffffffffffffffffffffffffff1673ffffffffffffffffffffffffffffffffffffffff166342842e0e30336007546040518463ffffffff1660e01b81526004016105a9939291906117c1565b600060405180830381600087803b1580156105c357600080fd5b505af11580156105d7573d6000803e3d6000fd5b505050506105e36113b4565b33600160006101000a81548173ffffffffffffffffffffffffffffffffffffffff021916908373ffffffffffffffffffffffffffffffffffffffff160217905550565b600960149054906101000a900460ff1681565b60075481565b600860009054906101000a900473ffffffffffffffffffffffffffffffffffffffff1681565b60035481565b600030905090565b600061067d6113d1565b905090565b6003544210156106c7576040517f08c379a00000000000000000000000000000000000000000000000000000000081526004016106be9061189d565b60405180910390fd5b60045442111561070c576040517f08c379a000000000000000000000000000000000000000000000000000000000815260040161070390611909565b60405180910390fd5b60008054906101000a900473ffffffffffffffffffffffffffffffffffffffff1673ffffffffffffffffffffffffffffffffffffffff163373ffffffffffffffffffffffffffffffffffffffff16141561079b576040517f08c379a000000000000000000000000000000000000000000000000000000000815260040161079290611975565b60405180910390fd5b806005548110156107e1576040517f08c379a00000000000000000000000000000000000000000000000000000000081526004016107d8906119e1565b60405180910390fd5b81600b548111610826576040517f08c379a000000000000000000000000000000000000000000000000000000000815260040161081d90611a73565b60405180910390fd5b82600654811061086b576040517f08c379a000000000000000000000000000000000000000000000000000000000815260040161086290611b05565b60405180910390fd5b600073ffffffffffffffffffffffffffffffffffffffff16600a60009054906101000a900473ffffffffffffffffffffffffffffffffffffffff1673ffffffffffffffffffffffffffffffffffffffff161461098757600c60009054906101000a900473ffffffffffffffffffffffffffffffffffffffff1673ffffffffffffffffffffffffffffffffffffffff1663a9059cbb600a60009054906101000a900473ffffffffffffffffffffffffffffffffffffffff16600b546040518363ffffffff1660e01b8152600401610942929190611b25565b6020604051808303816000875af1158015610961573d6000803e3d6000fd5b505050506040513d601f19601f820116820180604052508101906109859190611824565b505b33600a60006101000a81548173ffffffffffffffffffffffffffffffffffffffff021916908373ffffffffffffffffffffffffffffffffffffffff16021790555083600b81905550600c60009054906101000a900473ffffffffffffffffffffffffffffffffffffffff1673ffffffffffffffffffffffffffffffffffffffff166323b872dd3330876040518463ffffffff1660e01b8152600401610a2e939291906117c1565b6020604051808303816000875af1158015610a4d573d6000803e3d6000fd5b505050506040513d601f19601f82011682018060405250810190610a719190611824565b5050505050565b6000600b54905090565b600960009054906101000a900473ffffffffffffffffffffffffffffffffffffffff1681565b600354421015610aed576040517f08c379a0000000000000000000000000000000000000000000000000000000008152600401610ae49061189d565b60405180910390fd5b600454421115610b32576040517f08c379a0000000000000000000000000000000000000000000000000000000008152600401610b2990611909565b60405180910390fd5b60008054906101000a900473ffffffffffffffffffffffffffffffffffffffff1673ffffffffffffffffffffffffffffffffffffffff163373ffffffffffffffffffffffffffffffffffffffff161415610bc1576040517f08c379a0000000000000000000000000000000000000000000000000000000008152600401610bb890611975565b60405180910390fd5b600073ffffffffffffffffffffffffffffffffffffffff16600a60009054906101000a900473ffffffffffffffffffffffffffffffffffffffff1673ffffffffffffffffffffffffffffffffffffffff1614610cdf57600c60009054906101000a900473ffffffffffffffffffffffffffffffffffffffff1673ffffffffffffffffffffffffffffffffffffffff166323b872dd30600a60009054906101000a900473ffffffffffffffffffffffffffffffffffffffff16600b546040518463ffffffff1660e01b8152600401610c9a939291906117c1565b6020604051808303816000875af1158015610cb9573d6000803e3d6000fd5b505050506040513d601f19601f82011682018060405250810190610cdd9190611824565b505b600c60009054906101000a900473ffffffffffffffffffffffffffffffffffffffff1673ffffffffffffffffffffffffffffffffffffffff166323b872dd3360008054906101000a900473ffffffffffffffffffffffffffffffffffffffff166006546040518463ffffffff1660e01b8152600401610d60939291906117c1565b6020604051808303816000875af1158015610d7f573d6000803e3d6000fd5b505050506040513d601f19601f82011682018060405250810190610da39190611824565b50600d60009054906101000a900473ffffffffffffffffffffffffffffffffffffffff1673ffffffffffffffffffffffffffffffffffffffff166342842e0e30336007546040518463ffffffff1660e01b8152600401610e05939291906117c1565b600060405180830381600087803b158015610e1f57600080fd5b505af1158015610e33573d6000803e3d6000fd5b50505050610e3f6113b4565b33600160006101000a81548173ffffffffffffffffffffffffffffffffffffffff021916908373ffffffffffffffffffffffffffffffffffffffff160217905550565b600160009054906101000a900473ffffffffffffffffffffffffffffffffffffffff1681565b600354421015610eed576040517f08c379a0000000000000000000000000000000000000000000000000000000008152600401610ee49061189d565b60405180910390fd5b600454421115610f32576040517f08c379a0000000000000000000000000000000000000000000000000000000008152600401610f2990611909565b60405180910390fd5b600260009054906101000a900473ffffffffffffffffffffffffffffffffffffffff1673ffffffffffffffffffffffffffffffffffffffff163373ffffffffffffffffffffffffffffffffffffffff161480610fd9575060008054906101000a900473ffffffffffffffffffffffffffffffffffffffff1673ffffffffffffffffffffffffffffffffffffffff163373ffffffffffffffffffffffffffffffffffffffff16145b611018576040517f08c379a000000000000000000000000000000000000000000000000000000000815260040161100f90611bc0565b60405180910390fd5b60011515600960149054906101000a900460ff161515141561106f576040517f08c379a000000000000000000000000000000000000000000000000000000000815260040161106690611c2c565b60405180910390fd5b600073ffffffffffffffffffffffffffffffffffffffff16600a60009054906101000a900473ffffffffffffffffffffffffffffffffffffffff1673ffffffffffffffffffffffffffffffffffffffff161461118d57600c60009054906101000a900473ffffffffffffffffffffffffffffffffffffffff1673ffffffffffffffffffffffffffffffffffffffff166323b872dd30600a60009054906101000a900473ffffffffffffffffffffffffffffffffffffffff16600b546040518463ffffffff1660e01b8152600401611148939291906117c1565b6020604051808303816000875af1158015611167573d6000803e3d6000fd5b505050506040513d601f19601f8201168201806040525081019061118b9190611824565b505b600d60009054906101000a900473ffffffffffffffffffffffffffffffffffffffff1673ffffffffffffffffffffffffffffffffffffffff166342842e0e3060008054906101000a900473ffffffffffffffffffffffffffffffffffffffff166007546040518463ffffffff1660e01b815260040161120e939291906117c1565b600060405180830381600087803b15801561122857600080fd5b505af115801561123c573d6000803e3d6000fd5b505050506112486113b4565b565b600a60009054906101000a900473ffffffffffffffffffffffffffffffffffffffff1681565b600c60009054906101000a900473ffffffffffffffffffffffffffffffffffffffff1681565b6000426004546112a69190611c7b565b905090565b600b5481565b600d60009054906101000a900473ffffffffffffffffffffffffffffffffffffffff1681565b600080600080600080600080600080600354600454600554600654600754600a60009054906101000a900473ffffffffffffffffffffffffffffffffffffffff16600b54600860009054906101000a900473ffffffffffffffffffffffffffffffffffffffff16600960009054906101000a900473ffffffffffffffffffffffffffffffffffffffff1660008054906101000a900473ffffffffffffffffffffffffffffffffffffffff16995099509950995099509950995099509950995090919293949596979899565b60065481565b60055481565b60045481565b6001600960146101000a81548160ff021916908315150217905550565b6000600c60009054906101000a900473ffffffffffffffffffffffffffffffffffffffff1673ffffffffffffffffffffffffffffffffffffffff166370a08231336040518263ffffffff1660e01b815260040161142e91906114b5565b602060405180830381865afa15801561144b573d6000803e3d6000fd5b505050506040513d601f19601f8201168201806040525081019061146f9190611cc4565b905090565b600073ffffffffffffffffffffffffffffffffffffffff82169050919050565b600061149f82611474565b9050919050565b6114af81611494565b82525050565b60006020820190506114ca60008301846114a6565b92915050565b60008115159050919050565b6114e5816114d0565b82525050565b600060208201905061150060008301846114dc565b92915050565b6000819050919050565b61151981611506565b82525050565b60006020820190506115346000830184611510565b92915050565b600080fd5b61154881611506565b811461155357600080fd5b50565b6000813590506115658161153f565b92915050565b6000602082840312156115815761158061153a565b5b600061158f84828501611556565b91505092915050565b6000819050919050565b60006115bd6115b86115b384611474565b611598565b611474565b9050919050565b60006115cf826115a2565b9050919050565b60006115e1826115c4565b9050919050565b6115f1816115d6565b82525050565b600060208201905061160c60008301846115e8565b92915050565b6000819050919050565b61162581611612565b82525050565b6000602082019050611640600083018461161c565b92915050565b6000611651826115c4565b9050919050565b61166181611646565b82525050565b600060208201905061167c6000830184611658565b92915050565b600061014082019050611698600083018d611510565b6116a5602083018c611510565b6116b2604083018b611510565b6116bf606083018a611510565b6116cc6080830189611510565b6116d960a08301886114a6565b6116e660c0830187611510565b6116f360e08301866114a6565b6117016101008301856114a6565b61170f6101208301846114a6565b9b9a5050505050505050505050565b600082825260208201905092915050565b7f53616c653a20546869732073656e646572206973206e6f74204869676865737460008201527f4269646465720000000000000000000000000000000000000000000000000000602082015250565b600061178b60268361171e565b91506117968261172f565b604082019050919050565b600060208201905081810360008301526117ba8161177e565b9050919050565b60006060820190506117d660008301866114a6565b6117e360208301856114a6565b6117f06040830184611510565b949350505050565b611801816114d0565b811461180c57600080fd5b50565b60008151905061181e816117f8565b92915050565b60006020828403121561183a5761183961153a565b5b60006118488482850161180f565b91505092915050565b7f53616c653a20546869732073616c65206973206e6f7420737461727465642e00600082015250565b6000611887601f8361171e565b915061189282611851565b602082019050919050565b600060208201905081810360008301526118b68161187a565b9050919050565b7f53616c653a20546869732073616c652069732066696e69736865640000000000600082015250565b60006118f3601b8361171e565b91506118fe826118bd565b602082019050919050565b60006020820190508181036000830152611922816118e6565b9050919050565b7f53616c653a20596f75206172652073656c6c65722e0000000000000000000000600082015250565b600061195f60158361171e565b915061196a82611929565b602082019050919050565b6000602082019050818103600083015261198e81611952565b9050919050565b7f6269645f616d6f756e74206973206c6f77207468616e206d696e507269636500600082015250565b60006119cb601f8361171e565b91506119d682611995565b602082019050919050565b600060208201905081810360008301526119fa816119be565b9050919050565b7f6269645f616d6f756e74206973206c6f77207468616e2068696768657374426960008201527f6400000000000000000000000000000000000000000000000000000000000000602082015250565b6000611a5d60218361171e565b9150611a6882611a01565b604082019050919050565b60006020820190508181036000830152611a8c81611a50565b9050919050565b7f6269645f616d6f756e742069732068696768207468616e20707572636861736560008201527f5072696365000000000000000000000000000000000000000000000000000000602082015250565b6000611aef60258361171e565b9150611afa82611a93565b604082019050919050565b60006020820190508181036000830152611b1e81611ae2565b9050919050565b6000604082019050611b3a60008301856114a6565b611b476020830184611510565b9392505050565b7f53616c653a20596f7520617265206e6f742061646d696e206f722073656c6c6560008201527f722e000000000000000000000000000000000000000000000000000000000000602082015250565b6000611baa60228361171e565b9150611bb582611b4e565b604082019050919050565b60006020820190508181036000830152611bd981611b9d565b9050919050565b7f53616c653a205468697320697320736f6c64206f757400000000000000000000600082015250565b6000611c1660168361171e565b9150611c2182611be0565b602082019050919050565b60006020820190508181036000830152611c4581611c09565b9050919050565b7f4e487b7100000000000000000000000000000000000000000000000000000000600052601160045260246000fd5b6000611c8682611506565b9150611c9183611506565b925082821015611ca457611ca3611c4c565b5b828203905092915050565b600081519050611cbe8161153f565b92915050565b600060208284031215611cda57611cd961153a565b5b6000611ce884828501611caf565b9150509291505056fea2646970667358221220e0807c0d13fcc4ecdf944f10e8ddc889055cbc4a6ff88a2930d6a9f5c7232f0664736f6c634300080a0033",
  "immutableReferences": {},
  "source": "// SPDX-License-Identifier: MIT\r\npragma solidity ^0.8.4;\r\n\r\nimport \"./access/Ownable.sol\";\r\nimport \"./token/ERC20/ERC20.sol\";\r\nimport \"./token/ERC721/ERC721.sol\";\r\n\r\n/**\r\n * PJT  - Req.1-SC1 SaleFactory \r\n *    ,      .\r\n */\r\ncontract SaleFactory is Ownable {\r\n    address public admin;\r\n    address[] public sales;\r\n\r\n    event NewSale(\r\n        address indexed _saleContract,\r\n        address indexed _owner,\r\n        uint256 _workId\r\n    );\r\n\r\n    constructor() {\r\n        admin = msg.sender;\r\n    }\r\n\r\n    /**\r\n     * @dev   . \r\n     */\r\n    function createSale(\r\n        uint256 itemId,\r\n        uint256 minPrice,\r\n        uint256 purchasePrice,\r\n        uint256 startTime,\r\n        uint256 endTime,\r\n        address currencyAddress,\r\n        address nftAddress\r\n    ) public returns (address) {\r\n        Sale sale = new Sale(admin,msg.sender,itemId,minPrice,purchasePrice,startTime,endTime,currencyAddress,nftAddress);\r\n        address saleAddress = address(sale);\r\n        sales.push(saleAddress);\r\n        //  \r\n        //  \r\n        return saleAddress;\r\n    }\r\n\r\n    function allSales() public view returns (address[] memory) {\r\n        return sales;\r\n    }\r\n}\r\n\r\n/**\r\n *  PJT  - Req.1-SC2) Sale \r\n */\r\ncontract Sale{\r\n    //    \r\n    address public seller; // \r\n    address public buyer; //  \r\n    address admin; //  \r\n    uint256 public saleStartTime;// \r\n    uint256 public saleEndTime;// \r\n    uint256 public minPrice;//  \r\n    uint256 public purchasePrice;//  \r\n    uint256 public tokenId;//  \r\n    address public currencyAddress;//   ERC-20\r\n    address public nftAddress;// nft \r\n    bool public ended;\r\n\r\n    //    \r\n    address public highestBidder;\r\n    uint256 public highestBid;\r\n\r\n    IERC20 public erc20Contract;\r\n    IERC721 public erc721Contract;\r\n\r\n    event HighestBidIncereased(address bidder, uint256 amount);\r\n    event SaleEnded(address winner, uint256 amount);\r\n\r\n\r\n    constructor(\r\n        address _admin,\r\n        address _seller,\r\n        uint256 _tokenId,\r\n        uint256 _minPrice,\r\n        uint256 _purchasePrice,\r\n        uint256 startTime,\r\n        uint256 endTime,\r\n        address _currencyAddress,\r\n        address _nftAddress\r\n    ) {\r\n        require(_minPrice > 0);\r\n        tokenId = _tokenId;\r\n        minPrice = _minPrice;\r\n        purchasePrice = _purchasePrice;\r\n        seller = _seller;\r\n        admin = _admin;\r\n        saleStartTime = startTime;\r\n        saleEndTime = endTime;\r\n        currencyAddress = _currencyAddress;\r\n        nftAddress = _nftAddress;\r\n        ended = false;\r\n        erc20Contract = IERC20(_currencyAddress);\r\n        erc721Contract = IERC721(_nftAddress);\r\n    }\r\n\r\n    function bid(uint256 bid_amount) \r\n    onlyAfterStart\r\n    onlyBeforeEnd \r\n    onlyNotSeller \r\n    moreThanMinPrice(bid_amount) \r\n    moreThanHighestBid(bid_amount) \r\n    lessThanPurchasePrice(bid_amount)\r\n     public {\r\n        // TODO\r\n        // 1.     .\r\n        // 1-1.     .\r\n        if(highestBidder!=address(0)) {\r\n            erc20Contract.transfer(highestBidder, highestBid);\r\n        }\r\n        highestBidder = msg.sender;\r\n        highestBid = bid_amount;\r\n        // 2. Sale    ERC-20  .\r\n        erc20Contract.transferFrom(msg.sender, address(this), bid_amount);\r\n    }\r\n\r\n    function purchase() \r\n    onlyAfterStart\r\n    onlyBeforeEnd\r\n    onlyNotSeller\r\n    public {\r\n        // TODO \r\n        \r\n        // 1.     .\r\n        if(highestBidder!=address(0)) {\r\n            erc20Contract.transferFrom(address(this), highestBidder, highestBid);\r\n        }\r\n\r\n        // 2.  ERC-20     .\r\n        erc20Contract.transferFrom(msg.sender, seller, purchasePrice);\r\n\r\n        // 3. NFT   .\r\n        erc721Contract.safeTransferFrom(address(this), msg.sender, tokenId);\r\n\r\n        // 4.       .\r\n        _end();\r\n        buyer = msg.sender;\r\n    }\r\n\r\n    function confirmItem() onlyHighestBidder public {\r\n        // TODO\r\n        // 1.    .\r\n        erc20Contract.transferFrom(address(this), seller, highestBid);\r\n        // 2. NFT   .\r\n        erc721Contract.safeTransferFrom(address(this), msg.sender, tokenId);    // Sale  -> (NFT) -> \r\n        // 3.       .\r\n        _end();\r\n        buyer = msg.sender;\r\n    }\r\n    \r\n    function cancelSales() \r\n    onlyAfterStart\r\n    onlyBeforeEnd\r\n    onlyAdminOrSeller\r\n    onlyBeforeSoldOut   \r\n    public {\r\n        // TODO\r\n        // 1.  .\r\n        if(highestBidder!=address(0)) {\r\n            erc20Contract.transferFrom(address(this), highestBidder, highestBid);\r\n        }\r\n        // 2. NFT   .\r\n        erc721Contract.safeTransferFrom(address(this), seller, tokenId);\r\n        // 3.     .\r\n        _end();\r\n    }\r\n\r\n    function getTimeLeft() public view returns (int256) {\r\n        return (int256)(saleEndTime - block.timestamp);\r\n    }\r\n\r\n    function getSaleInfo()\r\n        public\r\n        view\r\n        returns (\r\n            uint256,\r\n            uint256,\r\n            uint256,\r\n            uint256,\r\n            uint256,\r\n            address,\r\n            uint256,\r\n            address,\r\n            address,\r\n            address\r\n        )\r\n    {\r\n        return (\r\n            saleStartTime,\r\n            saleEndTime,\r\n            minPrice,\r\n            purchasePrice,\r\n            tokenId,\r\n            highestBidder,\r\n            highestBid,\r\n            currencyAddress,\r\n            nftAddress,\r\n            seller\r\n        );\r\n    }\r\n\r\n    function getContractAddress() public view returns (address) {\r\n        return address(this);\r\n    }\r\n\r\n\r\n    function getHighestBid() public view returns(uint256){\r\n        return highestBid;\r\n    }\r\n\r\n    // internal  private     _  .\r\n    function _end() internal {\r\n        ended = true;\r\n    }\r\n\r\n    function getCurrencyAmount() public view returns (uint256) {\r\n        return _getCurrencyAmount();\r\n    }\r\n\r\n    function _getCurrencyAmount() private view returns (uint256) {\r\n        return erc20Contract.balanceOf(msg.sender);\r\n    }\r\n\r\n    // modifier       .\r\n\r\n    modifier onlyAdminOrSeller() {\r\n        require(msg.sender == admin || msg.sender == seller, \"Sale: You are not admin or seller.\");\r\n        _;\r\n    }\r\n\r\n    modifier onlyAdmin() {\r\n        require(msg.sender == admin, \"Sale: You are not admin.\");\r\n        _;\r\n    }\r\n\r\n    modifier onlySeller() {\r\n        require(msg.sender == seller, \"Sale: You are not seller.\");\r\n        _;\r\n    }\r\n    modifier onlyAfterStart() {\r\n        require(\r\n            block.timestamp >= saleStartTime,\r\n            \"Sale: This sale is not started.\"\r\n        );\r\n        _;\r\n    }\r\n    modifier onlyBeforeEnd() {\r\n        require(\r\n            block.timestamp <= saleEndTime,\r\n            \"Sale: This sale is finished\"\r\n        );\r\n        _;\r\n    }\r\n    modifier onlyNotSeller() {\r\n         require(msg.sender != seller, \"Sale: You are seller.\");\r\n        _;\r\n    }\r\n    modifier moreThanMinPrice(uint256 bid_amount) {\r\n         require(bid_amount >= minPrice, \"bid_amount is low than minPrice\");\r\n        _;\r\n    }\r\n    modifier moreThanHighestBid(uint256 bid_amount) {\r\n         require(bid_amount > highestBid, \"bid_amount is low than highestBid\");\r\n        _;\r\n    }\r\n    modifier lessThanPurchasePrice(uint256 bid_amount) {\r\n         require(bid_amount < purchasePrice, \"bid_amount is high than purchasePrice\");\r\n        _;\r\n    }\r\n    // modifier ERC20Approve(uint256 bid_amount) {\r\n    //     // function in IERC20) approve(address spender, uint256 amount) returns (bool)\r\n    //     // bool check = erc20Contract.approve(msg.sender, bid_amount);\r\n    //     bool check = erc20Contract.approve(address(this), bid_amount);\r\n    //     require(check == true, \"approve!\");\r\n    //     _;\r\n    // }\r\n\r\n    modifier onlyAfterEnd() {\r\n        require(\r\n            block.timestamp > saleEndTime,\r\n            \"Sale: This sale is not finished\"\r\n        );\r\n        _;\r\n    }\r\n\r\n    modifier onlyHighestBidder() {\r\n        require(\r\n            msg.sender == highestBidder,\r\n            \"Sale: This sender is not HighestBidder\"\r\n        );\r\n        _;\r\n    }\r\n    \r\n    modifier onlyBeforeSoldOut() {\r\n        require(\r\n            ended != true,\r\n            \"Sale: This is sold out\"\r\n        );\r\n        _;\r\n    }\r\n}",
  "sourcePath": "C:\\Users\\moon\\Documents\\SubProject2-1\\S06P21A401\\smart-contracts\\contracts\\SaleFactory.sol",
  "compiler": {
    "name": "solc",
    "version": "0.8.10+commit.fc410830.Emscripten.clang"
  },
  "schemaVersion": "3.4.5",
  "updatedAt": "2022-03-25T08:27:41.862Z",
  "devdoc": {
    "kind": "dev",
    "methods": {},
    "version": 1
  },
  "userdoc": {
    "kind": "user",
    "methods": {},
    "notice": "PJT  - Req.1-SC2) Sale ",
    "version": 1
  }
}