{
  "contractName": "SsafyNFT",
  "abi": [
    {
      "inputs": [],
      "stateMutability": "nonpayable",
      "type": "constructor"
    },
    {
      "anonymous": false,
      "inputs": [
        {
          "indexed": true,
          "internalType": "address",
          "name": "owner",
          "type": "address"
        },
        {
          "indexed": true,
          "internalType": "address",
          "name": "approved",
          "type": "address"
        },
        {
          "indexed": true,
          "internalType": "uint256",
          "name": "tokenId",
          "type": "uint256"
        }
      ],
      "name": "Approval",
      "type": "event"
    },
    {
      "anonymous": false,
      "inputs": [
        {
          "indexed": true,
          "internalType": "address",
          "name": "owner",
          "type": "address"
        },
        {
          "indexed": true,
          "internalType": "address",
          "name": "operator",
          "type": "address"
        },
        {
          "indexed": false,
          "internalType": "bool",
          "name": "approved",
          "type": "bool"
        }
      ],
      "name": "ApprovalForAll",
      "type": "event"
    },
    {
      "anonymous": false,
      "inputs": [
        {
          "indexed": true,
          "internalType": "address",
          "name": "from",
          "type": "address"
        },
        {
          "indexed": true,
          "internalType": "address",
          "name": "to",
          "type": "address"
        },
        {
          "indexed": true,
          "internalType": "uint256",
          "name": "tokenId",
          "type": "uint256"
        }
      ],
      "name": "Transfer",
      "type": "event"
    },
    {
      "inputs": [
        {
          "internalType": "address",
          "name": "to",
          "type": "address"
        },
        {
          "internalType": "uint256",
          "name": "tokenId",
          "type": "uint256"
        }
      ],
      "name": "approve",
      "outputs": [],
      "stateMutability": "nonpayable",
      "type": "function"
    },
    {
      "inputs": [
        {
          "internalType": "address",
          "name": "owner",
          "type": "address"
        }
      ],
      "name": "balanceOf",
      "outputs": [
        {
          "internalType": "uint256",
          "name": "",
          "type": "uint256"
        }
      ],
      "stateMutability": "view",
      "type": "function",
      "constant": true
    },
    {
      "inputs": [
        {
          "internalType": "uint256",
          "name": "tokenId",
          "type": "uint256"
        }
      ],
      "name": "getApproved",
      "outputs": [
        {
          "internalType": "address",
          "name": "",
          "type": "address"
        }
      ],
      "stateMutability": "view",
      "type": "function",
      "constant": true
    },
    {
      "inputs": [
        {
          "internalType": "address",
          "name": "owner",
          "type": "address"
        },
        {
          "internalType": "address",
          "name": "operator",
          "type": "address"
        }
      ],
      "name": "isApprovedForAll",
      "outputs": [
        {
          "internalType": "bool",
          "name": "",
          "type": "bool"
        }
      ],
      "stateMutability": "view",
      "type": "function",
      "constant": true
    },
    {
      "inputs": [],
      "name": "name",
      "outputs": [
        {
          "internalType": "string",
          "name": "",
          "type": "string"
        }
      ],
      "stateMutability": "view",
      "type": "function",
      "constant": true
    },
    {
      "inputs": [
        {
          "internalType": "uint256",
          "name": "tokenId",
          "type": "uint256"
        }
      ],
      "name": "ownerOf",
      "outputs": [
        {
          "internalType": "address",
          "name": "",
          "type": "address"
        }
      ],
      "stateMutability": "view",
      "type": "function",
      "constant": true
    },
    {
      "inputs": [
        {
          "internalType": "address",
          "name": "from",
          "type": "address"
        },
        {
          "internalType": "address",
          "name": "to",
          "type": "address"
        },
        {
          "internalType": "uint256",
          "name": "tokenId",
          "type": "uint256"
        }
      ],
      "name": "safeTransferFrom",
      "outputs": [],
      "stateMutability": "nonpayable",
      "type": "function"
    },
    {
      "inputs": [
        {
          "internalType": "address",
          "name": "from",
          "type": "address"
        },
        {
          "internalType": "address",
          "name": "to",
          "type": "address"
        },
        {
          "internalType": "uint256",
          "name": "tokenId",
          "type": "uint256"
        },
        {
          "internalType": "bytes",
          "name": "_data",
          "type": "bytes"
        }
      ],
      "name": "safeTransferFrom",
      "outputs": [],
      "stateMutability": "nonpayable",
      "type": "function"
    },
    {
      "inputs": [
        {
          "internalType": "address",
          "name": "operator",
          "type": "address"
        },
        {
          "internalType": "bool",
          "name": "approved",
          "type": "bool"
        }
      ],
      "name": "setApprovalForAll",
      "outputs": [],
      "stateMutability": "nonpayable",
      "type": "function"
    },
    {
      "inputs": [
        {
          "internalType": "bytes4",
          "name": "interfaceId",
          "type": "bytes4"
        }
      ],
      "name": "supportsInterface",
      "outputs": [
        {
          "internalType": "bool",
          "name": "",
          "type": "bool"
        }
      ],
      "stateMutability": "view",
      "type": "function",
      "constant": true
    },
    {
      "inputs": [],
      "name": "symbol",
      "outputs": [
        {
          "internalType": "string",
          "name": "",
          "type": "string"
        }
      ],
      "stateMutability": "view",
      "type": "function",
      "constant": true
    },
    {
      "inputs": [
        {
          "internalType": "uint256",
          "name": "index",
          "type": "uint256"
        }
      ],
      "name": "tokenByIndex",
      "outputs": [
        {
          "internalType": "uint256",
          "name": "",
          "type": "uint256"
        }
      ],
      "stateMutability": "view",
      "type": "function",
      "constant": true
    },
    {
      "inputs": [
        {
          "internalType": "address",
          "name": "owner",
          "type": "address"
        },
        {
          "internalType": "uint256",
          "name": "index",
          "type": "uint256"
        }
      ],
      "name": "tokenOfOwnerByIndex",
      "outputs": [
        {
          "internalType": "uint256",
          "name": "",
          "type": "uint256"
        }
      ],
      "stateMutability": "view",
      "type": "function",
      "constant": true
    },
    {
      "inputs": [],
      "name": "totalSupply",
      "outputs": [
        {
          "internalType": "uint256",
          "name": "",
          "type": "uint256"
        }
      ],
      "stateMutability": "view",
      "type": "function",
      "constant": true
    },
    {
      "inputs": [
        {
          "internalType": "address",
          "name": "from",
          "type": "address"
        },
        {
          "internalType": "address",
          "name": "to",
          "type": "address"
        },
        {
          "internalType": "uint256",
          "name": "tokenId",
          "type": "uint256"
        }
      ],
      "name": "transferFrom",
      "outputs": [],
      "stateMutability": "nonpayable",
      "type": "function"
    },
    {
      "inputs": [],
      "name": "current",
      "outputs": [
        {
          "internalType": "uint256",
          "name": "",
          "type": "uint256"
        }
      ],
      "stateMutability": "view",
      "type": "function",
      "constant": true
    },
    {
      "inputs": [
        {
          "internalType": "uint256",
          "name": "tokenId",
          "type": "uint256"
        }
      ],
      "name": "tokenURI",
      "outputs": [
        {
          "internalType": "string",
          "name": "",
          "type": "string"
        }
      ],
      "stateMutability": "view",
      "type": "function",
      "constant": true
    },
    {
      "inputs": [
        {
          "internalType": "address",
          "name": "to",
          "type": "address"
        },
        {
          "internalType": "string",
          "name": "_tokenURI",
          "type": "string"
        }
      ],
      "name": "create",
      "outputs": [
        {
          "internalType": "uint256",
          "name": "",
          "type": "uint256"
        }
      ],
      "stateMutability": "nonpayable",
      "type": "function"
    }
  ],
  "bytecode": "0x60806040523480156200001157600080fd5b50600c8054620000219062000251565b80601f01602080910402602001604051908101604052809291908181526020018280546200004f9062000251565b8015620000a05780601f106200007457610100808354040283529160200191620000a0565b820191906000526020600020905b8154815290600101906020018083116200008257829003601f168201915b5050505050600d8054620000b49062000251565b80601f0160208091040260200160405190810160405280929190818152602001828054620000e29062000251565b8015620001335780601f10620001075761010080835404028352916020019162000133565b820191906000526020600020905b8154815290600101906020018083116200011557829003601f168201915b505050505081600090805190602001906200015092919062000172565b5080600190805190602001906200016992919062000172565b50505062000287565b828054620001809062000251565b90600052602060002090601f016020900481019282620001a45760008555620001f0565b82601f10620001bf57805160ff1916838001178555620001f0565b82800160010185558215620001f0579182015b82811115620001ef578251825591602001919060010190620001d2565b5b509050620001ff919062000203565b5090565b5b808211156200021e57600081600090555060010162000204565b5090565b7f4e487b7100000000000000000000000000000000000000000000000000000000600052602260045260246000fd5b600060028204905060018216806200026a57607f821691505b6020821081141562000281576200028062000222565b5b50919050565b612d7180620002976000396000f3fe608060405234801561001057600080fd5b50600436106101165760003560e01c80636352211e116100a2578063a15ab08d11610071578063a15ab08d14610307578063a22cb46514610337578063b88d4fde14610353578063c87b56dd1461036f578063e985e9c51461039f57610116565b80636352211e1461026b57806370a082311461029b57806395d89b41146102cb5780639fa6a6e3146102e957610116565b806318160ddd116100e957806318160ddd146101b557806323b872dd146101d35780632f745c59146101ef57806342842e0e1461021f5780634f6ccce71461023b57610116565b806301ffc9a71461011b57806306fdde031461014b578063081812fc14610169578063095ea7b314610199575b600080fd5b61013560048036038101906101309190611c70565b6103cf565b6040516101429190611cb8565b60405180910390f35b610153610449565b6040516101609190611d6c565b60405180910390f35b610183600480360381019061017e9190611dc4565b6104db565b6040516101909190611e32565b60405180910390f35b6101b360048036038101906101ae9190611e79565b610560565b005b6101bd610678565b6040516101ca9190611ec8565b60405180910390f35b6101ed60048036038101906101e89190611ee3565b610685565b005b61020960048036038101906102049190611e79565b6106e5565b6040516102169190611ec8565b60405180910390f35b61023960048036038101906102349190611ee3565b61078a565b005b61025560048036038101906102509190611dc4565b6107aa565b6040516102629190611ec8565b60405180910390f35b61028560048036038101906102809190611dc4565b61081b565b6040516102929190611e32565b60405180910390f35b6102b560048036038101906102b09190611f36565b6108cd565b6040516102c29190611ec8565b60405180910390f35b6102d3610985565b6040516102e09190611d6c565b60405180910390f35b6102f1610a17565b6040516102fe9190611ec8565b60405180910390f35b610321600480360381019061031c9190612098565b610a21565b60405161032e9190611ec8565b60405180910390f35b610351600480360381019061034c9190612120565b610a80565b005b61036d60048036038101906103689190612201565b610a96565b005b61038960048036038101906103849190611dc4565b610af8565b6040516103969190611d6c565b60405180910390f35b6103b960048036038101906103b49190612284565b610b9d565b6040516103c69190611cb8565b60405180910390f35b60007f780e9d63000000000000000000000000000000000000000000000000000000007bffffffffffffffffffffffffffffffffffffffffffffffffffffffff1916827bffffffffffffffffffffffffffffffffffffffffffffffffffffffff19161480610442575061044182610c31565b5b9050919050565b606060008054610458906122f3565b80601f0160208091040260200160405190810160405280929190818152602001828054610484906122f3565b80156104d15780601f106104a6576101008083540402835291602001916104d1565b820191906000526020600020905b8154815290600101906020018083116104b457829003601f168201915b5050505050905090565b60006104e682610d13565b610525576040517f08c379a000000000000000000000000000000000000000000000000000000000815260040161051c90612397565b60405180910390fd5b6004600083815260200190815260200160002060009054906101000a900473ffffffffffffffffffffffffffffffffffffffff169050919050565b600061056b8261081b565b90508073ffffffffffffffffffffffffffffffffffffffff168373ffffffffffffffffffffffffffffffffffffffff1614156105dc576040517f08c379a00000000000000000000000000000000000000000000000000000000081526004016105d390612429565b60405180910390fd5b8073ffffffffffffffffffffffffffffffffffffffff166105fb610d7f565b73ffffffffffffffffffffffffffffffffffffffff16148061062a575061062981610624610d7f565b610b9d565b5b610669576040517f08c379a0000000000000000000000000000000000000000000000000000000008152600401610660906124bb565b60405180910390fd5b6106738383610d87565b505050565b6000600880549050905090565b610696610690610d7f565b82610e40565b6106d5576040517f08c379a00000000000000000000000000000000000000000000000000000000081526004016106cc9061254d565b60405180910390fd5b6106e0838383610f1e565b505050565b60006106f0836108cd565b8210610731576040517f08c379a0000000000000000000000000000000000000000000000000000000008152600401610728906125df565b60405180910390fd5b600660008473ffffffffffffffffffffffffffffffffffffffff1673ffffffffffffffffffffffffffffffffffffffff168152602001908152602001600020600083815260200190815260200160002054905092915050565b6107a583838360405180602001604052806000815250610a96565b505050565b60006107b4610678565b82106107f5576040517f08c379a00000000000000000000000000000000000000000000000000000000081526004016107ec90612671565b60405180910390fd5b6008828154811061080957610808612691565b5b90600052602060002001549050919050565b6000806002600084815260200190815260200160002060009054906101000a900473ffffffffffffffffffffffffffffffffffffffff169050600073ffffffffffffffffffffffffffffffffffffffff168173ffffffffffffffffffffffffffffffffffffffff1614156108c4576040517f08c379a00000000000000000000000000000000000000000000000000000000081526004016108bb90612732565b60405180910390fd5b80915050919050565b60008073ffffffffffffffffffffffffffffffffffffffff168273ffffffffffffffffffffffffffffffffffffffff16141561093e576040517f08c379a0000000000000000000000000000000000000000000000000000000008152600401610935906127c4565b60405180910390fd5b600360008373ffffffffffffffffffffffffffffffffffffffff1673ffffffffffffffffffffffffffffffffffffffff168152602001908152602001600020549050919050565b606060018054610994906122f3565b80601f01602080910402602001604051908101604052809291908181526020018280546109c0906122f3565b8015610a0d5780601f106109e257610100808354040283529160200191610a0d565b820191906000526020600020905b8154815290600101906020018083116109f057829003601f168201915b5050505050905090565b6000600a54905090565b60006001600a6000828254610a369190612813565b925050819055506000600a549050610a4e8482611185565b82600b60008381526020019081526020016000209080519060200190610a75929190611b61565b508091505092915050565b610a92610a8b610d7f565b838361135f565b5050565b610aa7610aa1610d7f565b83610e40565b610ae6576040517f08c379a0000000000000000000000000000000000000000000000000000000008152600401610add9061254d565b60405180910390fd5b610af2848484846114cc565b50505050565b6060600b60008381526020019081526020016000208054610b18906122f3565b80601f0160208091040260200160405190810160405280929190818152602001828054610b44906122f3565b8015610b915780601f10610b6657610100808354040283529160200191610b91565b820191906000526020600020905b815481529060010190602001808311610b7457829003601f168201915b50505050509050919050565b6000600560008473ffffffffffffffffffffffffffffffffffffffff1673ffffffffffffffffffffffffffffffffffffffff16815260200190815260200160002060008373ffffffffffffffffffffffffffffffffffffffff1673ffffffffffffffffffffffffffffffffffffffff16815260200190815260200160002060009054906101000a900460ff16905092915050565b60007f80ac58cd000000000000000000000000000000000000000000000000000000007bffffffffffffffffffffffffffffffffffffffffffffffffffffffff1916827bffffffffffffffffffffffffffffffffffffffffffffffffffffffff19161480610cfc57507f5b5e139f000000000000000000000000000000000000000000000000000000007bffffffffffffffffffffffffffffffffffffffffffffffffffffffff1916827bffffffffffffffffffffffffffffffffffffffffffffffffffffffff1916145b80610d0c5750610d0b82611528565b5b9050919050565b60008073ffffffffffffffffffffffffffffffffffffffff166002600084815260200190815260200160002060009054906101000a900473ffffffffffffffffffffffffffffffffffffffff1673ffffffffffffffffffffffffffffffffffffffff1614159050919050565b600033905090565b816004600083815260200190815260200160002060006101000a81548173ffffffffffffffffffffffffffffffffffffffff021916908373ffffffffffffffffffffffffffffffffffffffff160217905550808273ffffffffffffffffffffffffffffffffffffffff16610dfa8361081b565b73ffffffffffffffffffffffffffffffffffffffff167f8c5be1e5ebec7d5bd14f71427d1e84f3dd0314c0f7b2291e5b200ac8c7c3b92560405160405180910390a45050565b6000610e4b82610d13565b610e8a576040517f08c379a0000000000000000000000000000000000000000000000000000000008152600401610e81906128db565b60405180910390fd5b6000610e958361081b565b90508073ffffffffffffffffffffffffffffffffffffffff168473ffffffffffffffffffffffffffffffffffffffff161480610f0457508373ffffffffffffffffffffffffffffffffffffffff16610eec846104db565b73ffffffffffffffffffffffffffffffffffffffff16145b80610f155750610f148185610b9d565b5b91505092915050565b8273ffffffffffffffffffffffffffffffffffffffff16610f3e8261081b565b73ffffffffffffffffffffffffffffffffffffffff1614610f94576040517f08c379a0000000000000000000000000000000000000000000000000000000008152600401610f8b9061296d565b60405180910390fd5b600073ffffffffffffffffffffffffffffffffffffffff168273ffffffffffffffffffffffffffffffffffffffff161415611004576040517f08c379a0000000000000000000000000000000000000000000000000000000008152600401610ffb906129ff565b60405180910390fd5b61100f838383611592565b61101a600082610d87565b6001600360008573ffffffffffffffffffffffffffffffffffffffff1673ffffffffffffffffffffffffffffffffffffffff168152602001908152602001600020600082825461106a9190612a1f565b925050819055506001600360008473ffffffffffffffffffffffffffffffffffffffff1673ffffffffffffffffffffffffffffffffffffffff16815260200190815260200160002060008282546110c19190612813565b92505081905550816002600083815260200190815260200160002060006101000a81548173ffffffffffffffffffffffffffffffffffffffff021916908373ffffffffffffffffffffffffffffffffffffffff160217905550808273ffffffffffffffffffffffffffffffffffffffff168473ffffffffffffffffffffffffffffffffffffffff167fddf252ad1be2c89b69c2b068fc378daa952ba7f163c4a11628f55a4df523b3ef60405160405180910390a46111808383836116a6565b505050565b600073ffffffffffffffffffffffffffffffffffffffff168273ffffffffffffffffffffffffffffffffffffffff1614156111f5576040517f08c379a00000000000000000000000000000000000000000000000000000000081526004016111ec90612a9f565b60405180910390fd5b6111fe81610d13565b1561123e576040517f08c379a000000000000000000000000000000000000000000000000000000000815260040161123590612b0b565b60405180910390fd5b61124a60008383611592565b6001600360008473ffffffffffffffffffffffffffffffffffffffff1673ffffffffffffffffffffffffffffffffffffffff168152602001908152602001600020600082825461129a9190612813565b92505081905550816002600083815260200190815260200160002060006101000a81548173ffffffffffffffffffffffffffffffffffffffff021916908373ffffffffffffffffffffffffffffffffffffffff160217905550808273ffffffffffffffffffffffffffffffffffffffff16600073ffffffffffffffffffffffffffffffffffffffff167fddf252ad1be2c89b69c2b068fc378daa952ba7f163c4a11628f55a4df523b3ef60405160405180910390a461135b600083836116a6565b5050565b8173ffffffffffffffffffffffffffffffffffffffff168373ffffffffffffffffffffffffffffffffffffffff1614156113ce576040517f08c379a00000000000000000000000000000000000000000000000000000000081526004016113c590612b77565b60405180910390fd5b80600560008573ffffffffffffffffffffffffffffffffffffffff1673ffffffffffffffffffffffffffffffffffffffff16815260200190815260200160002060008473ffffffffffffffffffffffffffffffffffffffff1673ffffffffffffffffffffffffffffffffffffffff16815260200190815260200160002060006101000a81548160ff0219169083151502179055508173ffffffffffffffffffffffffffffffffffffffff168373ffffffffffffffffffffffffffffffffffffffff167f17307eab39ab6107e8899845ad3d59bd9653f200f220920489ca2b5937696c31836040516114bf9190611cb8565b60405180910390a3505050565b6114d7848484610f1e565b6114e3848484846116ab565b611522576040517f08c379a000000000000000000000000000000000000000000000000000000000815260040161151990612c09565b60405180910390fd5b50505050565b60007f01ffc9a7000000000000000000000000000000000000000000000000000000007bffffffffffffffffffffffffffffffffffffffffffffffffffffffff1916827bffffffffffffffffffffffffffffffffffffffffffffffffffffffff1916149050919050565b61159d838383611833565b600073ffffffffffffffffffffffffffffffffffffffff168373ffffffffffffffffffffffffffffffffffffffff1614156115e0576115db81611838565b61161f565b8173ffffffffffffffffffffffffffffffffffffffff168373ffffffffffffffffffffffffffffffffffffffff161461161e5761161d8382611881565b5b5b600073ffffffffffffffffffffffffffffffffffffffff168273ffffffffffffffffffffffffffffffffffffffff1614156116625761165d816119ee565b6116a1565b8273ffffffffffffffffffffffffffffffffffffffff168273ffffffffffffffffffffffffffffffffffffffff16146116a05761169f8282611abf565b5b5b505050565b505050565b60006116cc8473ffffffffffffffffffffffffffffffffffffffff16611b3e565b15611826578373ffffffffffffffffffffffffffffffffffffffff1663150b7a026116f5610d7f565b8786866040518563ffffffff1660e01b81526004016117179493929190612c7e565b6020604051808303816000875af192505050801561175357506040513d601f19601f820116820180604052508101906117509190612cdf565b60015b6117d6573d8060008114611783576040519150601f19603f3d011682016040523d82523d6000602084013e611788565b606091505b506000815114156117ce576040517f08c379a00000000000000000000000000000000000000000000000000000000081526004016117c590612c09565b60405180910390fd5b805181602001fd5b63150b7a0260e01b7bffffffffffffffffffffffffffffffffffffffffffffffffffffffff1916817bffffffffffffffffffffffffffffffffffffffffffffffffffffffff19161491505061182b565b600190505b949350505050565b505050565b6008805490506009600083815260200190815260200160002081905550600881908060018154018082558091505060019003906000526020600020016000909190919091505550565b6000600161188e846108cd565b6118989190612a1f565b905060006007600084815260200190815260200160002054905081811461197d576000600660008673ffffffffffffffffffffffffffffffffffffffff1673ffffffffffffffffffffffffffffffffffffffff168152602001908152602001600020600084815260200190815260200160002054905080600660008773ffffffffffffffffffffffffffffffffffffffff1673ffffffffffffffffffffffffffffffffffffffff168152602001908152602001600020600084815260200190815260200160002081905550816007600083815260200190815260200160002081905550505b6007600084815260200190815260200160002060009055600660008573ffffffffffffffffffffffffffffffffffffffff1673ffffffffffffffffffffffffffffffffffffffff16815260200190815260200160002060008381526020019081526020016000206000905550505050565b60006001600880549050611a029190612a1f565b9050600060096000848152602001908152602001600020549050600060088381548110611a3257611a31612691565b5b906000526020600020015490508060088381548110611a5457611a53612691565b5b906000526020600020018190555081600960008381526020019081526020016000208190555060096000858152602001908152602001600020600090556008805480611aa357611aa2612d0c565b5b6001900381819060005260206000200160009055905550505050565b6000611aca836108cd565b905081600660008573ffffffffffffffffffffffffffffffffffffffff1673ffffffffffffffffffffffffffffffffffffffff168152602001908152602001600020600083815260200190815260200160002081905550806007600084815260200190815260200160002081905550505050565b6000808273ffffffffffffffffffffffffffffffffffffffff163b119050919050565b828054611b6d906122f3565b90600052602060002090601f016020900481019282611b8f5760008555611bd6565b82601f10611ba857805160ff1916838001178555611bd6565b82800160010185558215611bd6579182015b82811115611bd5578251825591602001919060010190611bba565b5b509050611be39190611be7565b5090565b5b80821115611c00576000816000905550600101611be8565b5090565b6000604051905090565b600080fd5b600080fd5b60007fffffffff0000000000000000000000000000000000000000000000000000000082169050919050565b611c4d81611c18565b8114611c5857600080fd5b50565b600081359050611c6a81611c44565b92915050565b600060208284031215611c8657611c85611c0e565b5b6000611c9484828501611c5b565b91505092915050565b60008115159050919050565b611cb281611c9d565b82525050565b6000602082019050611ccd6000830184611ca9565b92915050565b600081519050919050565b600082825260208201905092915050565b60005b83811015611d0d578082015181840152602081019050611cf2565b83811115611d1c576000848401525b50505050565b6000601f19601f8301169050919050565b6000611d3e82611cd3565b611d488185611cde565b9350611d58818560208601611cef565b611d6181611d22565b840191505092915050565b60006020820190508181036000830152611d868184611d33565b905092915050565b6000819050919050565b611da181611d8e565b8114611dac57600080fd5b50565b600081359050611dbe81611d98565b92915050565b600060208284031215611dda57611dd9611c0e565b5b6000611de884828501611daf565b91505092915050565b600073ffffffffffffffffffffffffffffffffffffffff82169050919050565b6000611e1c82611df1565b9050919050565b611e2c81611e11565b82525050565b6000602082019050611e476000830184611e23565b92915050565b611e5681611e11565b8114611e6157600080fd5b50565b600081359050611e7381611e4d565b92915050565b60008060408385031215611e9057611e8f611c0e565b5b6000611e9e85828601611e64565b9250506020611eaf85828601611daf565b9150509250929050565b611ec281611d8e565b82525050565b6000602082019050611edd6000830184611eb9565b92915050565b600080600060608486031215611efc57611efb611c0e565b5b6000611f0a86828701611e64565b9350506020611f1b86828701611e64565b9250506040611f2c86828701611daf565b9150509250925092565b600060208284031215611f4c57611f4b611c0e565b5b6000611f5a84828501611e64565b91505092915050565b600080fd5b600080fd5b7f4e487b7100000000000000000000000000000000000000000000000000000000600052604160045260246000fd5b611fa582611d22565b810181811067ffffffffffffffff82111715611fc457611fc3611f6d565b5b80604052505050565b6000611fd7611c04565b9050611fe38282611f9c565b919050565b600067ffffffffffffffff82111561200357612002611f6d565b5b61200c82611d22565b9050602081019050919050565b82818337600083830152505050565b600061203b61203684611fe8565b611fcd565b90508281526020810184848401111561205757612056611f68565b5b612062848285612019565b509392505050565b600082601f83011261207f5761207e611f63565b5b813561208f848260208601612028565b91505092915050565b600080604083850312156120af576120ae611c0e565b5b60006120bd85828601611e64565b925050602083013567ffffffffffffffff8111156120de576120dd611c13565b5b6120ea8582860161206a565b9150509250929050565b6120fd81611c9d565b811461210857600080fd5b50565b60008135905061211a816120f4565b92915050565b6000806040838503121561213757612136611c0e565b5b600061214585828601611e64565b92505060206121568582860161210b565b9150509250929050565b600067ffffffffffffffff82111561217b5761217a611f6d565b5b61218482611d22565b9050602081019050919050565b60006121a461219f84612160565b611fcd565b9050828152602081018484840111156121c0576121bf611f68565b5b6121cb848285612019565b509392505050565b600082601f8301126121e8576121e7611f63565b5b81356121f8848260208601612191565b91505092915050565b6000806000806080858703121561221b5761221a611c0e565b5b600061222987828801611e64565b945050602061223a87828801611e64565b935050604061224b87828801611daf565b925050606085013567ffffffffffffffff81111561226c5761226b611c13565b5b612278878288016121d3565b91505092959194509250565b6000806040838503121561229b5761229a611c0e565b5b60006122a985828601611e64565b92505060206122ba85828601611e64565b9150509250929050565b7f4e487b7100000000000000000000000000000000000000000000000000000000600052602260045260246000fd5b6000600282049050600182168061230b57607f821691505b6020821081141561231f5761231e6122c4565b5b50919050565b7f4552433732313a20617070726f76656420717565727920666f72206e6f6e657860008201527f697374656e7420746f6b656e0000000000000000000000000000000000000000602082015250565b6000612381602c83611cde565b915061238c82612325565b604082019050919050565b600060208201905081810360008301526123b081612374565b9050919050565b7f4552433732313a20617070726f76616c20746f2063757272656e74206f776e6560008201527f7200000000000000000000000000000000000000000000000000000000000000602082015250565b6000612413602183611cde565b915061241e826123b7565b604082019050919050565b6000602082019050818103600083015261244281612406565b9050919050565b7f4552433732313a20617070726f76652063616c6c6572206973206e6f74206f7760008201527f6e6572206e6f7220617070726f76656420666f7220616c6c0000000000000000602082015250565b60006124a5603883611cde565b91506124b082612449565b604082019050919050565b600060208201905081810360008301526124d481612498565b9050919050565b7f4552433732313a207472616e736665722063616c6c6572206973206e6f74206f60008201527f776e6572206e6f7220617070726f766564000000000000000000000000000000602082015250565b6000612537603183611cde565b9150612542826124db565b604082019050919050565b600060208201905081810360008301526125668161252a565b9050919050565b7f455243373231456e756d657261626c653a206f776e657220696e646578206f7560008201527f74206f6620626f756e6473000000000000000000000000000000000000000000602082015250565b60006125c9602b83611cde565b91506125d48261256d565b604082019050919050565b600060208201905081810360008301526125f8816125bc565b9050919050565b7f455243373231456e756d657261626c653a20676c6f62616c20696e646578206f60008201527f7574206f6620626f756e64730000000000000000000000000000000000000000602082015250565b600061265b602c83611cde565b9150612666826125ff565b604082019050919050565b6000602082019050818103600083015261268a8161264e565b9050919050565b7f4e487b7100000000000000000000000000000000000000000000000000000000600052603260045260246000fd5b7f4552433732313a206f776e657220717565727920666f72206e6f6e657869737460008201527f656e7420746f6b656e0000000000000000000000000000000000000000000000602082015250565b600061271c602983611cde565b9150612727826126c0565b604082019050919050565b6000602082019050818103600083015261274b8161270f565b9050919050565b7f4552433732313a2062616c616e636520717565727920666f7220746865207a6560008201527f726f206164647265737300000000000000000000000000000000000000000000602082015250565b60006127ae602a83611cde565b91506127b982612752565b604082019050919050565b600060208201905081810360008301526127dd816127a1565b9050919050565b7f4e487b7100000000000000000000000000000000000000000000000000000000600052601160045260246000fd5b600061281e82611d8e565b915061282983611d8e565b9250827fffffffffffffffffffffffffffffffffffffffffffffffffffffffffffffffff0382111561285e5761285d6127e4565b5b828201905092915050565b7f4552433732313a206f70657261746f7220717565727920666f72206e6f6e657860008201527f697374656e7420746f6b656e0000000000000000000000000000000000000000602082015250565b60006128c5602c83611cde565b91506128d082612869565b604082019050919050565b600060208201905081810360008301526128f4816128b8565b9050919050565b7f4552433732313a207472616e736665722066726f6d20696e636f72726563742060008201527f6f776e6572000000000000000000000000000000000000000000000000000000602082015250565b6000612957602583611cde565b9150612962826128fb565b604082019050919050565b600060208201905081810360008301526129868161294a565b9050919050565b7f4552433732313a207472616e7366657220746f20746865207a65726f2061646460008201527f7265737300000000000000000000000000000000000000000000000000000000602082015250565b60006129e9602483611cde565b91506129f48261298d565b604082019050919050565b60006020820190508181036000830152612a18816129dc565b9050919050565b6000612a2a82611d8e565b9150612a3583611d8e565b925082821015612a4857612a476127e4565b5b828203905092915050565b7f4552433732313a206d696e7420746f20746865207a65726f2061646472657373600082015250565b6000612a89602083611cde565b9150612a9482612a53565b602082019050919050565b60006020820190508181036000830152612ab881612a7c565b9050919050565b7f4552433732313a20746f6b656e20616c7265616479206d696e74656400000000600082015250565b6000612af5601c83611cde565b9150612b0082612abf565b602082019050919050565b60006020820190508181036000830152612b2481612ae8565b9050919050565b7f4552433732313a20617070726f766520746f2063616c6c657200000000000000600082015250565b6000612b61601983611cde565b9150612b6c82612b2b565b602082019050919050565b60006020820190508181036000830152612b9081612b54565b9050919050565b7f4552433732313a207472616e7366657220746f206e6f6e20455243373231526560008201527f63656976657220696d706c656d656e7465720000000000000000000000000000602082015250565b6000612bf3603283611cde565b9150612bfe82612b97565b604082019050919050565b60006020820190508181036000830152612c2281612be6565b9050919050565b600081519050919050565b600082825260208201905092915050565b6000612c5082612c29565b612c5a8185612c34565b9350612c6a818560208601611cef565b612c7381611d22565b840191505092915050565b6000608082019050612c936000830187611e23565b612ca06020830186611e23565b612cad6040830185611eb9565b8181036060830152612cbf8184612c45565b905095945050505050565b600081519050612cd981611c44565b92915050565b600060208284031215612cf557612cf4611c0e565b5b6000612d0384828501612cca565b91505092915050565b7f4e487b7100000000000000000000000000000000000000000000000000000000600052603160045260246000fdfea264697066735822122030b967fb8c18508234604b855c613dfa52311545734fc95f50269e0a0526458764736f6c634300080a0033",
  "immutableReferences": {},
  "source": "// SPDX-License-Identifier: MIT\r\npragma solidity ^0.8.4;\r\n\r\n// import \"./token/ERC721/ERC721.sol\";\r\nimport \"@openzeppelin/contracts/token/ERC721/extensions/ERC721Enumerable.sol\";\r\n\r\n\r\n/**\r\n * PJT  -  2) NFT Creator \r\n *         .\r\n */\r\ncontract SsafyNFT is ERC721Enumerable{\r\n\r\n    uint256 private _tokenIds;\r\n    mapping(uint256 => string) tokenURIs;\r\n\r\n    //  \r\n    string private _name;\r\n    string private _symbol;\r\n\r\n    constructor() ERC721 (_name, _symbol) {\r\n    }\r\n\r\n    function current() public view returns (uint256) {\r\n        return _tokenIds;\r\n    }\r\n\r\n    function tokenURI(uint256 tokenId) public view override returns (string memory) {\r\n        return tokenURIs[tokenId];\r\n    }\r\n\r\n    function create(address to, string memory _tokenURI) public returns (uint256) {\r\n        //     _mint() .\r\n        _tokenIds += 1;\r\n        uint256 newTokenId = _tokenIds;\r\n        _mint(to, newTokenId);\r\n        //     tokenURI  \r\n        tokenURIs[newTokenId] = _tokenURI;\r\n        //     .\r\n        return newTokenId;\r\n    }\r\n}",
  "sourcePath": "C:\\Users\\moon\\Documents\\SubProject2-1\\S06P21A401\\smart-contracts\\contracts\\SsafyNFT.sol",
  "compiler": {
    "name": "solc",
    "version": "0.8.10+commit.fc410830.Emscripten.clang"
  },
  "schemaVersion": "3.4.5",
  "updatedAt": "2022-03-25T08:27:52.558Z",
  "networkType": "ethereum",
  "devdoc": {
    "kind": "dev",
    "methods": {
      "approve(address,uint256)": {
        "details": "See {IERC721-approve}."
      },
      "balanceOf(address)": {
        "details": "See {IERC721-balanceOf}."
      },
      "getApproved(uint256)": {
        "details": "See {IERC721-getApproved}."
      },
      "isApprovedForAll(address,address)": {
        "details": "See {IERC721-isApprovedForAll}."
      },
      "name()": {
        "details": "See {IERC721Metadata-name}."
      },
      "ownerOf(uint256)": {
        "details": "See {IERC721-ownerOf}."
      },
      "safeTransferFrom(address,address,uint256)": {
        "details": "See {IERC721-safeTransferFrom}."
      },
      "safeTransferFrom(address,address,uint256,bytes)": {
        "details": "See {IERC721-safeTransferFrom}."
      },
      "setApprovalForAll(address,bool)": {
        "details": "See {IERC721-setApprovalForAll}."
      },
      "supportsInterface(bytes4)": {
        "details": "See {IERC165-supportsInterface}."
      },
      "symbol()": {
        "details": "See {IERC721Metadata-symbol}."
      },
      "tokenByIndex(uint256)": {
        "details": "See {IERC721Enumerable-tokenByIndex}."
      },
      "tokenOfOwnerByIndex(address,uint256)": {
        "details": "See {IERC721Enumerable-tokenOfOwnerByIndex}."
      },
      "tokenURI(uint256)": {
        "details": "See {IERC721Metadata-tokenURI}."
      },
      "totalSupply()": {
        "details": "See {IERC721Enumerable-totalSupply}."
      },
      "transferFrom(address,address,uint256)": {
        "details": "See {IERC721-transferFrom}."
      }
    },
    "version": 1
  },
  "userdoc": {
    "kind": "user",
    "methods": {},
    "notice": "PJT  -  2) NFT Creator          .",
    "version": 1
  }
}